{
  "contractName": "HelpMe",
  "abi": [
    {
      "constant": false,
      "inputs": [],
      "name": "vmError",
      "outputs": [],
      "payable": false,
      "stateMutability": "nonpayable",
      "type": "function"
    },
    {
      "constant": false,
      "inputs": [],
      "name": "useAllGas",
      "outputs": [],
      "payable": false,
      "stateMutability": "nonpayable",
      "type": "function"
    }
  ],
  "bytecode": "0x608060405234801561001057600080fd5b5060b28061001f6000396000f3006080604052600436106049576000357c0100000000000000000000000000000000000000000000000000000000900463ffffffff1680638c29f8d414604e578063d695d178146062575b600080fd5b348015605957600080fd5b5060606076565b005b348015606d57600080fd5b5060746081565b005b60001515607f57fe5b565b600080fd00a165627a7a72305820ccc53833e0d9d84cc4b2827d4ffce65e09e9c27b78d626acec01a80c94ec81d40029",
  "source": "pragma solidity ^0.4.19;\n\ncontract HelpMe {\n\t/*function stackTooDeep(\n\t\tuint _a,\n\t\tuint _b,\n\t\tuint _c,\n\t\tuint _d,\n\t\tuint _e,\n\t\tuint _f,\n\t\tuint _g,\n\t\tuint _h,\n\t\tuint _i,\n\t\tuint _j,\n\t\tuint _k,\n\t\tuint _l,\n\t\tuint _m,\n\t\tuint _n,\n\t\tuint _o,\n\t\tuint _p,\n\t\tuint _q){}*/\n\n\tfunction vmError(){\n\t\trevert();\n\t}\n\n\tfunction useAllGas() {\n\t\tassert(false);\n\t}\n}",
  "sourcePath": "/home/elizabeth/Documents/rektcontracts/contracts/HelpMe.sol",
  "compiler": {
    "name": "solc",
    "version": "0.4.24+commit.e67f0147.Emscripten.clang"
  },
  "schemaVersion": "2.0.0",
  "updatedAt": "2018-06-05T20:52:30.408Z"
}